:4000000080673030303030307d0e737e7e3030307e3030307e3030307e3030307e3030307e3030307d04537e7e3030307e3030307e3030307e3030307e3030307e30303043
:400040007e3030307e3030307e3030307e3030307e3030307e3030307e3030307e3030307e3030307e303030711062fa0062e38f70ef50202850402850602862e33843fefe
:400080000450804e62e33855f80055f900711062e09a70ef62e33843e04062e20049da40affc711062e0c870ef62e33862e20049da40affc711062e0ca70ef6271056275c4
:4000c00005627905627d0550344e7c04405000550e1f3c0e34a0053f0e8ff850025720550e003c0e04a00b08283f0e187509008ff2711043e32070ef62e000711062e0db1d
:4001000043e78070ef62e2007c06e58fff50107f3030303030303030303030303030303030303030303030303030303030303030303030303030303030303030303030309e
:40014000303030303030303030303030303030303030303030303030303030303030303030303030303030303030303030303030303030303030303030303030303030307f
:40018000303030303030303030303030303030303030303030303030303030303030303030303030303030303030303030303030303030303030303030303030303030303f
:4001c00030303030303030303030303030303030303030303030303030303030303030303030303030303030303030303030303030303030303030303030303030303030ff
:400200006b487a200020487a20004f76657272616e67652000556e64657272616e6765000000000070ef62602b62660062630762650062e60262e70062d60062b00062b104
:400240000062b20062b33362b43362b50062b60062b85562b90062ba1062bb3362bc3362bd2062be0062c00062c10062c22062c33362c43362c50062c60062c85562c900c1
:4002800062ca3062cb3362cc3362cd0062ce00626c00626d00626e00626f0062717a6272616273406270006237006235256236126233006231f76232fc623b0062390062d3
:4002c0003a006223006221ff6222006227046225ff622600711062610062690062600062620062673362683362630062660062d10062d30062d00062d20062e11f62e2000f
:4003000062dfb762de0162dd0062e700623411623535623640623011623115623240623831623935623a4562201062214162224062243062253162264070ef70ef62008026
:4003400071106200b06201cf70ef62034f620220711062020062030070ef620100620400711062048062057f70ef62077c620600711062060062070070ef62050062080034
:40038000711062087f62098070ef620b80620a007110620a00620b0070ef620900620c007110620c00620d0070ef620f00620e007110620e00620f0070ef620d006210005e
:4003c000711062100062110070ef621300621200711062120062130070ef621100621400711062140062150070ef621700621600711062160062170070ef6215006218001d
:40040000711062180062190070ef621b00621a007110621a00621b0070ef621900621c007110621c00621d0070ef621f00621e007110621e00621f0070ef621d0070ef7f00
:40044000551c00551d7f551e807c044d7f7c022470ef7f085f1a135f19125115141a51141c195f160f5f17105f181150ff530f53105311531b187e43e1407f41e1bf7f437b
:4004800033017f4133fe7f4f52fb603952fc603552fd60317f4f52fb603a52fc603652fd60327f5600005d3a54015d3654025d3254037f5d33085d3a085d36085d3208416d
:4004c00033fe71105d390862390070ef5600005d385d3a54015d345d3654025d305d3254032018603218603618603a71105b603970ef1860337f081028b00420187f903c4f
:40050000201875dff2748fef303132333435363738394142434445460867676767210fffe7901918210fffe090127f4b9fea5b9fe77f5200a0069004758ff87f905f086765
:40054000676767210f903818210f40404090307f904b0867676767210f900918210f40404090017f08261c80511c600818210f29102a1c6008531c40218f531c60087f081c
:40058000261c802e1c20511c600818210f29302a1c6008531c4021af531c60087f08261c80511c6008261df0511d7110600870ef2e1c40511c6008401057ff2e1c50511c82
:4005c000600840405d0808261cc0511c60084040402e1c50511c60084040261cc0511c6008182108a00479bfd3202e1d7f511d7110600870ef187f261d802e1d7f261e80d1
:40060000511d71106008511e600970ef50fa906350fa905f50039f4c5052905750039f44905f905d905b50039f3a505a904550029f32505a903d50089f16505a90355001e0
:400640009f0e505a902d50069f06500e9f02502c9efe50089efa500c9ef650039ef2505a90117f80c094d4210310fff74f03ff209ede7f900c78bffc7f08193a7c01010161
:40068000010871105de070ef21073905d006ffe978bffe187f21034f085d7321fc2b006073187f21f44f085d71210f480004b00a4170fe2b006071187f2700102b00607142
:4006c000437001187f4173fc7f550fff5510ff5511ff551b0041dbfd43e10243230141dafd43e0027f1050037c06957c047f20430080107c05f7207101107c06c92083c04e
:400700003c1b00affc551b00430480511639006d310032166ad00f550000550100550200550300839650003a166d321631006ad1a25f0d16550e00470d80a004550eff5fbd
:40074000030d5f020e470280a0095501ff5500ff80075501005500005100085101085102085103087c1329185303185302185301185300510008510108510208510308501f
:400780004708508008500008087c117618530318530218530118530038fc51182101530b550c00470c80a009550dff550eff8007550d00550e00510e08510d08510c085171
:4007c0000b087c132918530b18530c18530d18530e5f09185f0a1770fb6e0a6e095f07095f080a470880a0095509ff550aff8007550900550a00510a085109085108085128
:4008000007087c1329185307185308185309180851090851080851070850400850000808087c117618530718530818530918530a38fc510e08510d08510c08510b08510a5f
:40084000085109085108085107087c0f5118530b18530c18530d1838fc08510d08510c08510b085100085101085102085103087c0f5118530318530218530118530038fc5d
:40088000503f08508008500008085100085101085102085103087c0f5118530318530218530118530038fc510008510108510208510308503f08507e08509b0850d3087ccc
:4008c000117618530318530218530118530038fc81e93c1700b0143c1800b00f55000055010055020055030081d151182101530b550c00470c80a009550dff550eff80073b
:40090000550d00550e00510e08510d08510c08510b087c132918530b18530c18530d18530e5f09185f0a1770fb6e0a6e095f07095f080a470880a0095509ff550aff8007d2
:40094000550900550a00510a085109085108085107087c1329185307185308185309180851090851080851070850400850000808087c117618530718530818530918530a0f
:4009800038fc510e08510d08510c08510b08510a085109085108085107087c0f5118530318530218530118530038fc510008510108510208510308504708507e08509b0853
:4009c00050d3087c117618530318530218530118530038fc511a2101530b550c00470c80a009550dff550eff8007550d00550e00510e08510d08510c08510b087c132918a6
:400a0000530b18530c18530d18530e5f091a5f0a1970fb6e0a6e095f07095f080a470880a0095509ff550aff8007550900550a00510a085109085108085107087c132918e5
:400a40005307185308185309180851090851080851070850400850000808087c117618530718530818530918530a38fc510e08510d08510c08510b08510a08510908510839
:400a8000085107087c0f5118530b18530c18530d1838fc08510d08510c08510b085100085101085102085103087c109918530318530218530118530038fc900741047f8cae
:400ac000408fff10570050017c066751167c0518581751187c052b570a50017c06675819511a7c052b500057007c0667205000080808085100085101085102085103087cda
:400b0000104b38f83900b00f1050020850155c187c04f620835d5000080808085100085101085102085103087c104b38f83900a0133901a00f10500208500a5c187c04f615
:400b4000208330504108502008500008085100085101085102085103087c104b38f83900a0303901a02c50380850510850b7085017085100085101085102085103087c0f05
:400b80005118530318530218530118530038fc81ae50420850c808500008085100085101085102085103087c104b38f83900a0303901a02c503a08500308501208506f0817
:400bc0005100085101085102085103087c0f5118530318530218530118530038fc8160504408507a08500008085100085101085102085103087c104b38f83900a030390166
:400c0000a02c503b0850a30850d708500a085100085101085102085103087c0f5118530318530218530118530038fc8112504608501c085040085000085100085101085104
:400c400002085103087c104b38f83900a0303901a02c503d08504c0850cc0850cd085100085101085102085103087c0f5118530318530218530118530038fc80c250470869
:400c800050c3085050085000085100085101085102085103087c104b38f83900a02c3901a028503f0850000808085100085101085102085103087c0f511853031853021869
:400cc000530118530038fc80765049085074085024085000085100085101085102085103087c104b38f83900a02e3901a02a50400850a00850000808510008510108510258
:400d0000085103087c0f5118530318530218530118530038fc8028504208504808500008085100085101085102085103087c0f5118530318530218530118530038fc50448b
:400d400008507a08500008085100085101085102085103087c104b38f83900a07b3901a077500008501f085100085101085102085103087c159038fa5f240d5f230e5f0e0a
:400d8000245f220e800676220e21005f0d223e0dbff580175f0d225f0e21510d01015322510e0900532150303f0d5f0e245122120e3906cfe051240106530d50003f0d10dc
:400dc00051230851245c187c053250020850055c187c04f620809c504408507a08500008085100085101085102085103087c109918530318530218530118530038fc500073
:400e000008501f085100085101085102085103087c159038fa5f240d5f230e5f0e245f220e800676220e21005f0d223e0dbff580175f0d225f0e21510d01015322510e096c
:400e400000532150303f0d5f0e245122120e3906cfe051240106530d50003f0d1051230851245c187c053250020850005c187c04f6207f0876110e10000e0f00d00b5d2229
:400e800053135d265312187e5d2253155d265314187e104f38017c129a38ff207fd02052f9b006470401a01776040e05000e0600d00d760e3c0effb006186a7d0f07186bc4
:400ec000066a6e0e6e067d0ee05000530e5306530553047f7c0ec97a0e6e0668067d0ee04f510e54f8510654f9510554fa510454fb18530e207f52fc530452fb530552fa33
:400f0000530652f9530e7f7c0ec9550eff6e0e6e067d0ee07c0ec96e0e7d0ee052fa6a52f96ab003747f74a00450007f52fa642bfb2bfca00450047f50027f6cfa52f933c2
:400f4000f56cf96d71046ffa66f66cf571046ff67f104f510e085b1104530e7c0f1c53064d0e7c0f1c4d0e53052a06a0343904c0047d0ed42102a0192206b0094d0e7c0e64
:400f8000f67d0ee02205aff752f933f5bfe48fef5106afeb2205afe552f923f56a7d0f147c0f3b086a2180530652fc13f852fb1bf752fa1bf652f91bf5d0074d0e18320632
:400fc00008510e087c0ef62013f956f900a01a391ac0047d0ebe70fb6ffa6ffb6ffc6ff9d0042ff90178bff118082140b02652fc040452fb0c0552fa0c06d04b3c0efeb0bb
:4010000006186a7d0f07760e6e062e06806e056e048036500013f954f952fc1c0452fb1c0552fa1c0652f92a042a052a06a00a470680b0137a0eb005187d0f1466f96b0486
:401040006b056b068fea66f97d0e9d104f52fa2bf66ac00852f92bf564a03d52f9530633f5530527f57f52fc13f8530452fb1bf72c0452fa1bf62c0452f9217f1bf52a0431
:401080006e046b052900c007a00e510434066b065000c003747373207f104f510e0852f933f5085b1104530e7c0f1c53064d0e7c0f1c4d0e53052a06a0263904c005187d50
:4010c0000ed451062205bff73c0601b006186a7d0f14c006186a7d0f076e05dff18ff67c0f3b17f57f52f9c00713f5d0098fdf13f5c0038fe0afd70852f6642bf82bf7b001
:401100000e1839ffafcf54f97c0ef67d0ebe500054f95304550e19470401b01252f815fc52f71dfb52f61dfa1ff900801052f805fc52f70dfb52f60dfa0ff9007a0ea01150
:401140006cfc6cfb6cfa6cf96b046b056b068fc818470680a00c550e0178b0038f70088fe039ffaf70530e50ff35f934043405340666f97d0e9d104f510e0852f933f508f0
:401180005b1104530e7c0f1c53064d0e7c0f1c4d0e53052a06a0153902a007c00a187d0ed4186a7d0f07186a7d0f147c0f3b52f903f5c007117fd0098fed117fc0038fe2f1
:4011c00039ffafde0852fa642bfb2bfcb00e580e7c0ef618afd1530e7d0ebe52f6642bf72bf8afed52fc530552f87c130c085f040652f77c130c020454f95f0e060e0e00f0
:4012000052f67c130c040e5f04060e040052fb530552f87c130c05f91833f9a00350010851060c0e0e040052f77c130c040e51060c0456f5000ff50052f67c130c0404510b
:40124000060df552fa530552f87c130c040e182a0e54f951060c0450000df5530e0c0e52f77c130c040451060df50e0e0052f67c130c03f55305510e0c0618470680b00b55
:4012800066f96b046b056b0680067439ffaf1321ffaf14530e66f97d0e9d510e085000530e53065305530456002066fc6cfb6cfa6cf96b046b056b066b0e51041bf851050f
:4012c0001bf751061bf6510e1bf5c011530e52f8140452f71c0552f61c0677fc7b00bfcb510454f8510554f7510654f6510e54f518530e7f37fcff77fc37fbff0ffb00378b
:40130000faff0ffa0037f9ff0ff9007f530660e8510560e95dea470680a0030205470580a003020653065deb7f104f52f953056ad0047c12f455069652f9b0182bfa2bfb4f
:401340002bfca04248fa80b03266fc6cfb6cfa7a068ff255040076066d6ffa6ffb6ffc6e0421ffbff26b04d012b00648fc01a00b500077fc0dfb0dfa0c066cfa6b055106c5
:401380006d54f96ffa207f104f380b52f7540252f8540352f9540452fa54053df700b02c3df800b0273df900b0223dfa00b01d52fc530d50303f0d52fc0101530d50003f60
:4013c0000d52fc530d52fb530e81c252fa110052f9190052f8190052f731801980d0383df500b0333df60ab02e560801520273530e520373530d520473530c5205730101af
:401400005405510c09005404510d09005403510e09005402800456080052fc540152f6530b52f5530c470c80a009550dff550eff8007550d00550e00510e08510d08510c93
:4014400008510b085202085203085204085205087c0e9238fc18530b18530c1818510b540a510c54095009130a52093180530650801a06c01d5201530d5200530e510d013c
:40148000015401510e09005400520a01303f0d801b5201530d5200530e510d01015401510e09005400520a01573f0d52f6530b52f5530c470c80a009550dff550eff8007bd
:4014c000550d00550e00510e08510d08510c08510b085202085203085204085205087c0e9218540518540418540318540238fc3d0200bf2a3d0300bf253d0400bf203d055f
:4015000000bf1b3d0800a0195201530d5200530e510d01015401510e09005400502d3f0d5201530d5200530e510d01ff5401510e09ff540050003f0d52fc5407803d520704
:40154000530d3e0d54085207530d5206530e510d01015407510e090054065201530b3e0b3f0d5201530d5200530e510d01ff5401510e09ff540052083f0d5201530e5207a8
:401580003a0ecfbb52fc530d52fb530e38f5207f104f381652f8530d50003f0d3f0d0808080852f90852fa0852fb0852fc087c104b38f83900b01555253055262e5527307c
:4015c000552800550d25550e00836652f9540652fa540752fb540852fc54095206530e5207530d5208530c5209530b5017680e6e0d6e0c6e0b78bff6510b117f540b500004
:401600001900540a5209530b5208530c5207530d510b5413510c5412510d29805411561000560200560300560400560500560c00560d00560e00560f00520b111f520a31a2
:40164000801980c01552f8530d50ff3f0d50fe3f0d550d00550e0082d8520b11e9520a3180197fd01352f8530d50ff3f0d3f0d550d00550e0082ba520b1117520a31801962
:4016800080c03a520b1117530d5210530a521153095212530852135307510d211fa00c65076b086b096b0a78bff6510a540c5109540d5108540e5107540f80b5520b110001
:4016c000520a31801980c0705017130b530d5210530a521153095212530852135307510d211fa00c680a6e096e086e0778bff6510a540c5109540d5108540e5107540f52aa
:401700000b0101530d5210530a521153095212530852135307510d211fa00c65076b086b096b0a78bff6510754055108540451095403560200803a520b01017311ff530d9a
:40174000521353075212530852115309550a00510d211fa00c680a6e096e086e0778bff6510a540251095403510854045107540556012556000052091100520819005207b4
:401780001900520631801980d0195201530d5200530e510d01015401510e09005400502d3f0d3d0c00b02a3d0d00b0253d0e00b0203d0f00b01b5201530d5200530e510dad
:4017c00001015401510e0900540050303f0d802d500008500a08520c08520d08520e08520f085200085201087c138738f8800677010f00005201530d3e0dbff45201530d99
:401800005200530e510d01015401510e09005400502e3f0d3d0200b02a3d0300b0253d0400b0203d0500b01b5201530d5200530e510d01015401510e0900540050303f0dcb
:4018400080e1550e255201120e530e500f120e1101541550073b15d00456150756140080935202530e5203530d5204530c520564530b6b0c6b0d6b0e5202530a5203530945
:401880005204530852055307500365076b086b096b0a78bff65107020b540551080a0c540451090a0d5403510a0a0e54025201530d5200530e510d01015401510e09005491
:4018c000005202530a5203530952045308520553075018680a6e096e086e0778bff60607300e08000e09000e0a0051073f0d270200771452143b15cf69520101ff540180cb
:4019000007520101ff54015201530d3e0d3930b00d520101ff530d3e0d392ebfe577010f00005201530d50003f0d550d25550e0038ea207f3030303030303030303030300a
:401940003030303030303030303030303030303030303030303030303030303030303030303030303030303030303030303030303030303030303030303030303030303067
:401980003030303030303030303030303030303030303030303030303030303030303030303030303030303030303030303030303030303030303030303030303030303027
:4019c00030303030303030303030303030303030303030303030303030303030303030303030303030303030303030303030303030303030303030303030303030303030e7
:401a000030303030303030303030303030303030303030303030303030303030303030303030303030303030303030303030303030303030303030303030303030303030a6
:020000040010ea
:020000040020da
:020000000f8c63
:00000001ff
