:4000000080673030303030307e3030307e3030307e3030307e3030307e3030307d144b7e7e3030307d041e7e7e3030307e3030307e3030307e3030307e3030307e3030309a
:400040007e3030307d07637e7d075d7e7d07607e7e3030307e3030307e3030307e3030307e3030307e303030711062fa0062e38770ef50202850402850602862e33841fe0c
:40008000fb50804e62e33855f80055f900711062e00270ef62e338627105627505627905627d0562d10750004e62d30762d00062d50062d40071c07c03b362d00050025705
:4000c000ac0828534018750900284b5140800475090062e300082860d574a04b1875090008285340187509000828a01c533f1875090008283f404740ffb0065dd57460d523
:40010000187a3fbfeb8fc9187509000828533f50003f404740ffb0085dd57460d550007a3fbfef188faa18711043e32070ef62e000711062e00343e78070ef62e2007c098c
:400140001e8fff50107f3030303030303030303030303030303030303030303030303030303030303030303030303030303030303030303030303030303030303030303014
:400180003030303030303030303030303030303030303030303030303030303030303030909091a0926193f0989099a09a609bf04b0049004a004f004d004e004300410046
:4001c0004200470045004600809481888200832484928540869f8720889489888a008b248c928d408e9f8f2071fd72a373207000751d76217720740179fd7aa37b20780070
:400200007d1d7e217f207c012300219822002704253a26006028660063156500e650e728d600b000b100b200b333b433b500b600b855b900ba10bb33bc33bd00be00c000e2
:40024000c100c220c333c433c500c600c855c900ca30cb33cc33cd00ce006c006d006e006f00ff482149454a404c214d654e40400141154240442145354640201021012216
:400280004024302531264061006900600062bc6733683363006600d100d300d000d200e12fe200df0fde00dd00e700ff14f770ef62000071106200006201ff70ef6203ff0d
:4002c000620200711062020062030070ef620100620400711062040f6205f070ef6207f0620600711062060062070070ef620500620800711062087f62090070ef620b0098
:40030000620a007110620a80620b8070ef620980620c007110620c00620d0070ef620f00620e007110620e00620f0070ef620d00621000711062100062110070ef621300c5
:40034000621200711062120062130070ef621100621400711062140062150070ef621700621600711062160062170070ef621500621800711062180062190070ef621b0085
:40038000621a007110621a00621b0070ef621900621c007110621c00621d0070ef621f00621e007110621e00621f0070ef621d0070ef7f55000055017f5502007c03c37c94
:4003c00002ae7f1070ef500067500157a07c03de500167500257637c03de70ef207f380210084f56fc00d00456fc01182070ef62e30010082839ffa01f4f48fc01a003710f
:400400001054fd18207509001008284f59fd610018207509008fd738fc703f71c07f08107609760c760d760b20187e43e1027f41e1fd7f4323017f4123fe7f60215b602572
:400440007f60225b60267f5d265c5d227f4f38035d23085d22085d26085d205d2654015d225402500049f701a0035001540070fe4123fe1860261860221860231820703f8d
:4004800071c07e5d205d265c5d227f21034f085d7721fc2b00607718703f71c07f21fc4f085d752107480004b00e4174fe2b00607518703f71c07f2700182b0060754374b6
:4004c0000118703f71c07f4177fc7f21034f085d7321fc2b00607318703f71c07f21fc4f085d712107480004b00e4170fe2b00607118703f71c07f2700182b0060714370f0
:400500000118703f71c07f4173fc7f21034f085d8321fc2b0060835d8721fc2b00608718703f71c07f211f4f085d8021e02b00608018703f71c07f211f4f085d8121e02b6c
:4005400000608118703f71c07f211f4f085d8421e02b00608418703f71c07f211f4f085d8621e02b00608618703f71c07f3901a00541807f7f4380807f3901a00541847f9e
:400580007f4384807f3901a0054380207f4180df7f4183fc4187fc7f081028b00420187f9044201875dff2748fef303132333435363738394142434445460867676767213d
:4005c0000fffe7902118210fffe0901a7f4b9fea5b9fe77f70bf60d35200a0069008758ff8703f71c07f90650867676767210f903b18210f40404090337f90510867676788
:4006000067210f900918210f40404090017f0862d0002600805100600818210f29102a006008530040218f530060087f0862d0002600802e00205100600818210f29302a97
:4006400000600853004021af530060087f0862d000260080510060082601f051017110600870ef2e004051006008401057ff2e00505100600840405d08082600c0510060a3
:40068000084040402e00505100600840402600c051006008182108a00479bfd3202e017f51017110600870ef187f62d0002601802e017f2602805101711060085102600907
:4006c00070ef50fa906750fa906350039f405052905b50039f3890639061905f50039f2e505a904950029f26505a904150089f0a505a903950019f02505a903150069efa6d
:40070000500e9ef6502c9ef250089eee500c9eea50039ee6505a90157f80c094d4210310fff74f03ff209ed2703f71c07f900c78bffc7f08193a7c010101010871105de04d
:4007400070ef21073905d006ffe978bffe187ffffefcf8f0e0c00204081020408076037e76047e414bfe414ffe439220439a20439310439b1071014070fe085d485d4a78f2
:4007800073d00376035306510353055d4c5d4e7873d00376045308510453076249ff624dff434b01434f015503005504004193ef419bef4192df419adf5109210fff970892
:4007c0002205a00b18110153055506ff80021868056e0668056e065109210fff79082207a00b18110153075508ff80021868076e0868076e08182e0910470affa0237a0ad7
:40080000b01f4143fe414bfe414ffe439220439a20439310439b1041dffd41dffb41dff77e62d00021034f085d9321fc2b0029f060935d9b21fc2b0029f0609b499201a0fb
:40084000055000530918703f71c07f4193fc419bfc7f62d000530a5109210f0107908c5d46530350001203675503005504005d426249ff624dff4193ef419bef4192df41fe
:400880009adf434b05434f0543430143df0243df0443df087f4143fe414bfe414ffe439220439a20439310439b100841dffd41dffb41dffb187f62d000510921107f62d05b
:4008c000002609ef580551067f62d000580551067f62d0002609ef580751087f62d000580751087f62d0002609ef7f62d0004192fe9fa25509003907d00550078007390da8
:40090000c003500d11072c0901015c50016479bffd6242006046624158010060457f7c06aa43e10243e0207101550900550c00550d00550b00550e00550f0055100055117e
:4009400000551a01553b00551d0055590050037c04cb50037c048b50037c050b50077c08eb50037c082150007c08527c043362d50662d40662d0065500015501025502032c
:40098000550304550405550506550607550708550801550902550a03550b04550c05550d06550e07550f085510015511025512035513045514055515065516075517085572
:4009c0001801551902551a03551b04551c05551d06551e07551f0855200155210255220355230455240555250655260755270762d000500157007c071d51187c05ba50014e
:400a000057037c071d511a7c05ba500157077c071d513b7c05ba500157067c071d510c7c05ba500157097c071d510d7c05ba5001570c7c071d51377c05ba5001570e7c07e0
:400a40001d510b7c05ba3c1701b01355170055180070fb651a3c1a20b004551a013c1a01a0153c1a02a07c3c1a04a1513c1a08a2b43c1a10a42f3c1800b012500057007c5c
:400a8000071d501357407c05987d09f23c1801b015551903500057007c071d501357107c05987d09f23c1802b015551902500057007c071d501357217c05987d09f23c18c8
:400ac00003b015551901500057007c071d501357307c05987d09f23c1804cf175518007d09f23c1800b012500057007c071d501357927c05987d09f23c1801b012500057e2
:400b0000007c071d501357f87c05987d09f23c1802bffc552100552000551f00551e00552900552800552700552600550d007c08b6affc70fe7c08c971017c08e470fb04b2
:400b4000215b0c200e1f000e1e0076290e28000e27000e26003c0d28bfd55f2e1e5f2f1f5f30205f31215f2a265f2b275f2c285f2d297c124d5f25355f24345f23335f2230
:400b8000325f37255f362465376536500057007c071d501357a37c05985000570b7c071d51257c05ba5000570d7c071d51377c05ba3c1803ce3d5518007d09f23c1800b036
:400bc0000f500057007c071d5013574f7c05983c1801b021550e00550f00551000551100551201500057007c071d501357707c05987d09f23c1802b09a3c1201b007550b55
:400c0000005512003c1901a0243c1902a0075f0e0b7d0c35510b5c3932b0075f0e0b7d0c355b3900b0105f0e0b7d0c35510b3900b0045f0e0b510b3964b006550b00760f10
:400c4000500057097c071d510e7c05ba510f393cb006550f007610500057067c071d510f7c05ba5110393cb006550f007611500057037c071d51107c05ba51113918b00469
:400c8000551100500057007c071d51117c05ba7d09f23c1803b02a3c5901a02255590151113f1d51103f1d510f3f1d510e3f1d761b500157097c071d511b7c05ba7d09f247
:400cc0003c1804b0555559005540003e4053163e4053153e4053143e405313500057007c071d51167c05ba500057037c071d51157c05ba500057067c071d51147c05ba50ad
:400d00000057097c071d51137c05ba5000570c7c071d501457097c05983c1805ccd55518007d09f23c1800b012500057007c071d501357c57c05987d09f23c1801b021551d
:400d40000e00550f00551000551100551201500057007c071d501357707c05987d09f23c1802b08b41e0df552100552000551f00551e005529005528005527005526005522
:400d80000d007c08b6affc70fe7c08c971017c08e470fb04215b0c200e1f000e1e0076290e28000e27000e26003c0d05bfd55f2e1e5f2f1f5f30205f31215f2a265f2b2704
:400dc0005f2c285f2d297c124d5f25355f24345f23335f223251243a36a006d00d7d09f251253a37d0047d09f276187d09f23c1803b09f43e0205d0431ff60043c1201b0e2
:400e000007550b005512007c1273552100552000551f00551e00552900552800552700552600550d007c08b6affc70fe7c08c971017c08e470fb04215b0c200e1f000e1ed3
:400e40000076290e28000e27000e26003c0d05bf325f2e1e5f2f1f5f30205f31215f2a265f2b275f2c285f2d297c124d5f25355f24345f23335f223251243a36a006d00d5a
:400e80007d09f251253a37d0047d09f276187d09f23c1804b0047d09f23c1805cb555518007d09f23c1800b012500057007c071d501357817c05987d09f262d4065546009f
:400ec0005544005545005542005543005541005550005549005548005547005554005553005552005551005558005557005556005555003c1801b0b1570b5540007d0f18e1
:400f000006400370fb7d0f1806400270fb7d0f1806400170fb7d0f1879a04d3e403a51a014cfde53513e4053523e4053533e4053547d0f183e403a52a010cfcd53523e40af
:400f400053533e4053547d0f183e403a53a00ccfc053533e4053547d0f183e403a54afb9cfb753547d0f18500157007c071d51517c05ba500157037c071d51527c05ba506a
:400f80000157067c071d51537c05ba500157097c071d51547c05ba500057007c071d501457397c05987d09f23c1802b0be554000570a3e4053553e4053563e4053573e40aa
:400fc00053587d0fda06400370fb7d0fda06400270fb7d0fda06400170fb79a04d3e403a55a014dfe153553e4053563e4053573e4053587d0fda3e403a56a010dfd0535678
:401000003e4053573e4053587d0fc53e403a57a00cdfc353573e4053587d0fc53e403a58afb9dfb753587d0fda500157007c071d51557c05ba500157037c071d51567c05d2
:40104000ba500157067c071d51577c05ba500157097c071d51587c05ba500057007c071d501457287c05987d09f23c1803b1d355639055a70050003f633f633f633f635549
:40108000640455620a5564045563903ea753653e630265393cd0157a633f637a643c6400bfea7a623c6200bfdd8021113c7a633f633e6301017a633f637a637a643c64005d
:4010c000bfca7a623c6200bfbd800155620a55720062d0065fd19362d00055ebd13eeb5586005577b05511003a62d009538551113f778007126276118fef55720a55610058
:40110000556800500055110055750602857a753c7500bff83a62d01753865f681151680461500002867a723c7200bfda8007126276118fe162d0065fd29262d00055ecd2ff
:401140003eec02865511003a62d00b5385511102613f778007126276118fed55720a556100556800500055110055750602857a753c7500bff83a62d01753865f68115168fa
:401180000461500002867a723c7200bfda8007126276118fe162d0065fd39162d00055edd33eed02865511003a62d00b5385511102613f778007126276118fed5564b351ed
:4011c000853f6455a7b03ea753c03ea753c13ea753c23ea753c3500057007c071d501457207c0598500157007c071d51c07c05ba500157027c071d5014571c7c05985001db
:4012000057037c071d51c17c05ba500157057c071d5014571c7c0598500157067c071d51c27c05ba500157087c071d5014571e7c0598500157097c071d51c37c05ba7d121d
:401240003e3c18045518007d09f27d124a10500008503208512a08512b08512c08512d08512e08512f085130085131087c147a38f6207f3c1901a0243c1902a0075f0e0b8d
:401280007d12a4510b5c3932b0075f0e0b7d12a45b3900b0105f0e0b7d12a4510b3900b0045f0e0b510b3964b006550b00760f500057097c071d510e7c05ba510f393cb0b3
:4012c00006550f007610500057067c071d510f7c05ba5110393cb006550f007611500057037c071d51107c05ba51113918b004551100500057007c071d51117c05ba7f4544
:40130000767279546e67206973204177736d65004143433a2054454e5448202020202020004143433a2048414c462020202020004143433a205345432020202020202000ee
:401340004143435552414359204d4f44452000425554544f4e204d4f444520202020004445425547204d4f44452020202020200030303a30303a30303a30302020202020e2
:40138000004d454d4f5259204d4f44452020202020005448524553484f4c44204d4f444520200043414c43205448524553483a202020200057484953544c453a20202020a8
:4013c0002020202000534f554e44204d4f444520202020202000535441525420532054494d45522020200053544f5020532054494d45522020202000202020202020202003
:40140000202020202020202000534156450020202000202020202020202020003a002e0041564552414745004d494e494d554d202020202020202020004d4158494d554d40
:4014400020202020202020202020000810763b5d082180a006550c00801d510c580c1101d00380135b111ed0085517007618800755170155180020187e7e4f7c14957c148b
:40148000847d14dc52fd533c52fc533d52fb533e52fa53407f62d00050005340533e533d533c553f2066fd6cfc6cfb6cfa6b3c6b3d6b3e6b40513c1bf9513d1bf8513e1ba3
:4014c000f751401bf6c011534052f9143c52f81c3d52f71c3e77fd7a3fbfcb7f52f460d552f54c403f40513e3f40513d3f40513c3f40703f71c07fff003030303030303036
:4015000030303030303030303030303030303030303030303030303030303030303030303030303030303030303030303030303030303030303030303030303030303030ab
:40154000303030303030303030303030303030303030303030303030303030303030303030303030303030303030303030303030303030303030303030303030303030306b
:40158000303030303030303030303030303030303030303030303030303030303030303030303030303030303030303030303030303030303030303030303030303030302b
:4015c00030303030303030303030303030303030303030303030303030303030303030303030303030303030303030303030303030303030303030303030303030303030eb
:020000040010ea
:020000040020da
:02000000393c89
:00000001ff
