:4000000080673030303030307e3030307e3030307e3030307e3030307e3030307d10a47e7e3030307d041e7e7e3030307e3030307e3030307e3030307e3030307e30303045
:400040007d07577e7e3030307d075d7e7d075a7e7e3030307e3030307e3030307e3030307e3030307e303030711062fa0062e38770ef50202850402850602841fefb5080d0
:400080004e55f80055f900711062e00270ef62e338627105627505627905627d0562d10750004e62d30762d00062d50062d40071c07c03b362d000500257ac0828531e18e8
:4000c000750900284b511e800475090062e300082860d574a04b187509000828531e187509000828a01c531d1875090008283f1e471effb0065dd57460d5187a1dbfeb8f6c
:40010000c9187509000828531d50003f1e471effb0085dd57460d550007a1dbfef188faa18711043e32070ef62e000711062e00343e78070ef62e2007c09188fff50107f99
:40014000303030303030303030303030303030303030303030303030303030303030303030303030303030303030303030303030303030303030303030303030303030307f
:400180003030303030303030303030303030303030303030303030303030303030303030909091a0926193f0989099a09a609bf04300410042004f004d004e004700450056
:4001c00046004b0049004a008094818882008324849f8540869f8720889489888a008b248c928d408e9f8f2071fd72a373207000751d76217720740179fd7aa37b20780053
:400200007d1d7e217f207c012300219822002704253a26006028660063156500e650e720d600b000b100b200b333b433b500b600b855b900ba10bb33bc33bd00be00c000ea
:40024000c100c220c333c433c500c600c855c900ca30cb33cc33cd00ce006c006d006e006f00ff4021414542404c214d654e40440145154640482149354a40201021052212
:400280004024302535264061006900600062bc6733683363006600d100d300d000d200e1ffe200dfffde02dd00e700ff10cf70ef62000071106200006201ff70ef6203ff73
:4002c000620200711062020062030070ef620100620400711062040f6205f070ef6207f0620600711062060062070070ef620500620800711062087f62090070ef620b0098
:40030000620a007110620a80620b8070ef620980620c007110620c00620d0070ef620f00620e007110620e00620f0070ef620d00621000711062100062110070ef621300c5
:40034000621200711062120062130070ef621100621400711062140062150070ef621700621600711062160062170070ef621500621800711062180062190070ef621b0085
:40038000621a007110621a00621b0070ef621900621c007110621c00621d0070ef621f00621e007110621e00621f0070ef621d0070ef7f55000055017f5502007c03c37c94
:4003c00002ae7f1070ef500067500157a07c03de500167500257637c03de70ef207f380210084f56fc00d00456fc01182070ef62e30010082839ffa01f4f48fc01a003710f
:400400001054fd18207509001008284f59fd610018207509008fd738fc703f71c07f0810760b20187e43e1027f41e1fd7f4323017f4123fe7f60215b60257f60225b602614
:400440007f5d265c5d227f4f38035d23085d22085d26085d205d2654015d225402500049f701a0035001540070fe4123fe1860261860221860231820703f71c07e5d205de6
:40048000265c5d227f21034f085d7721fc2b00607718703f71c07f21fc4f085d752107480004b00e4174fe2b00607518703f71c07f2700182b00607543740118703f71c046
:4004c0007f4177fc7f21034f085d7321fc2b00607318703f71c07f21fc4f085d712107480004b00e4170fe2b00607118703f71c07f2700182b00607143700118703f71c0f0
:400500007f4173fc7f21034f085d8321fc2b0060835d8721fc2b00608718703f71c07f211f4f085d8021e02b00608018703f71c07f211f4f085d8121e02b00608118703fbd
:4005400071c07f211f4f085d8421e02b00608418703f71c07f211f4f085d8621e02b00608618703f71c07f3901a00541807f7f4380807f3901a00541847f7f4384807f39c8
:4005800001a0054380207f4180df7f4183fc4187fc7f081028b00420187f9044201875dff2748fef303132333435363738394142434445460867676767210fffe7902118fd
:4005c000210fffe0901a7f4b9fea5b9fe77f70bf60d35200a0069008758ff8703f71c07f90650867676767210f903b18210f40404090337f90510867676767210f900918fe
:40060000210f40404090017f0862d0002600805100600818210f29102a006008530040218f530060087f0862d0002600802e00205100600818210f29302a006008530040e4
:4006400021af530060087f0862d000260080510060082601f051017110600870ef2e004051006008401057ff2e00505100600840405d08082600c0510060084040402e00a8
:40068000505100600840402600c051006008182108a00479bfd3202e017f51017110600870ef187f62d0002601802e017f2602805101711060085102600970ef50fa90675d
:4006c00050fa906350039f405052905b50039f3890639061905f50039f2e505a904950029f26505a904150089f0a505a903950019f02505a903150069efa500e9ef6502c9f
:400700009ef250089eee500c9eea50039ee6505a90157f80c094d4210310fff74f03ff209ed2703f71c07f900c78bffc7f08193a7c010101010871105de070ef21073905f6
:40074000d006ffe978bffe187ffffefcf8f0e0c00204081020408076037e76047e4143fe414ffe439220439a20439310439b1071014070fe085d405d427873d003760353bd
:4007800006510353055d4c5d4e7873d00376045308510453076241ff624dff434301434f015503005504004193ef419bef4192df419adf5109210fff97082205a00b1811b9
:4007c0000153055506ff80021868056e0668056e065109210fff79082207a00b18110153075508ff80021868076e0868076e08182e0910470affa0237a0ab01f4147fe413c
:4008000043fe414ffe439220439a20439310439b1041dffb41dffe41dff77e62d00021034f085d9321fc2b0029f060935d9b21fc2b0029f0609b499201a0055000530918cb
:40084000703f71c07f4193fc419bfc7f62d000530a5109210f0107908c5d4a530350001203675503005504005d466241ff624dff4193ef419bef4192df419adf4343054380
:400880004f0543470143df0443df0143df087f4147fe4143fe414ffe439220439a20439310439b100841dffb41dffe41dffe187f62d000510921107f62d0002609ef58052c
:4008c00051067f62d000580551067f62d0002609ef580751087f62d000580751087f62d0002609ef7f62d0004192fe9fa25509003907d00550078007390dc003500d1107eb
:400900002c0901015c50016479bffd624600604a624558010060497f62d50655000050203f0050303f0050103f0050023f0050103f00503b3f0050203f0050073f00502072
:400940003f0050303f0050103f0050023f0050103f00503b3f0050203f0050073f0050203f0050303f0050103f0050023f0050103f00503b3f0050203f0050073f005020df
:400980003f0050303f0050103f0050023f0050103f00503b3f0050203f0050073f0050203f0050303f0050103f0050023f0050103f00503b3f0050203f0050073f0062d0dd
:4009c000009ce143e10243e0207101550b00550c00550d00550e00550f0055170150037c04c550037c048550037c050550079ef550039e2750009e547c042d62d50662d41b
:400a000006500157009d1051159ba9500157059d0651179b9f3c1401b0195d0431ff600455140055150070fb65173c1720b0045517013c1701a0153c1702a06f3c1704a0fe
:400a40007e3c1708a1ad3c1710a1b93c1500b00f500057009cc1500e57219b368fa43c1501b012551603500057009cab500d57f19b208f8e3c1502b012551602500057008e
:400a80009c95500e57029b0a8f783c1503b012551601500057009c7f500e57119af48f623c1504cf5d5515008f58500057009c67500e57739adc551800551a008f443c15ff
:400ac00000b00d500057009c4e500e57309ac33c1501b01b550c00550d00550e00550f00500057009c31500e57529aa68f143c1502b0833c1601a0213c1602a0065f0c0b57
:400b00008020510b5c3932b0065f0c0b80145b3900b00f5f0c0b800a510b3900b0045f0c0b510b3964b006550b00760d500057099be5510c9a7e510d393cb006550d007688
:400b40000e500057069bd0510d9a69510e393cb006550d00760f500057039bbb510e9a54510f3918b004550f00500057009ba8510f9a418e8d3c1503b01d510f3f1a510eee
:400b80003f1a510d3f1a510c3f1a5001570c9b8751189a208e6c3c1504b04e08105540003e4053133e4053123e4053113e405310500057009b61511399fa500057039b57bc
:400bc000511299f0500057069b4d511199e6500057099b43511099dc5000570c9b39500e57b899ae20188e1a3c1505ce155515008e10555900500057009b1c500e579499e5
:400c0000918dff3c1501900d500057009b09500e57a67c05923c150290047c0ebd7f62d40655460055440055450055420055430055410055500055490055480055470055a2
:400c400054005553005552005551005558005557005556005555005540003c1501909c570b554000801606400370fb800f06400270fb800806400170fb800179a0493e404c
:400c80003a51a013cfe153513e4053523e4053533e4053548fe63e403a52a00fcfd053523e4053533e4053548fd23e403a53a00bcfc353533e4053548fc23e403a54afbc3f
:400cc000cfba53548fb6500157009a4b515198e4500157039a41515298da500157069a37515398d0500157099a2d515498c6500057009a23500e576b98987f554000570a0a
:400d00003e4053553e4053563e4053573e405358801406400370fb800d06400270fb800606400170fb79a0493e403a55a013dfe353553e4053563e4053573e4053588fe6dc
:400d40003e403a56a00fdfd253563e4053573e4053588fbf3e403a57a00bdfc553573e4053588faf3e403a58afbcdfba53588fb6500057007c071751557c05b45000570384
:400d80007c071751567c05b4500057067c071751577c05b4500057097c071751587c05b4500157047c0717500e57637c05927f8fff0810500057007c0717500e57827c05e2
:400dc0009220187f62d5067f08103e1a53103e1a53113e1a53123e1a5313900320187f7f45767279546e67206973204177736d65004143433a2054454e54482020202020ef
:400e000020004143433a2048414c462020202020004143433a2053454320202020202020004143435552414359204d4f44452000425554544f4e204d4f4445202020202069
:400e4000004445425547204d4f44452020202020200030303a30303a30303a30302020202020004d494e494d554d004d4158494d554d005448524553484f4c44204d4f4451
:400e80004500202020202020202020202020202020202000534f554e44204d4f444520202020202020004d454d4f5259204d4f444520202020202000534156450062d506d5
:400ec00062d40655639055670050003f633f633f633f635564045562095564045563903e6753653e630265393cd0157a633f637a643c6400bfea7a623c6200bfdd8021112b
:400f00003c7a633f633e6301017a633f637a637a643c6400bfca7a623c6200bfbd800155620955720062d0065f109362d00055eb103eeb5586005577b05511003a62d009db
:400f4000538551113f778007126276118fef55720a556100556800500055110055750602857a753c7500bff83a62d01753865f681151680461500002867a723c7200bfda7c
:400f80008007126276118fe162d0065f109262d00055eb103eeb02865511003a62d00b5385511102613f778007126276118fed55720a5561005568005000551100557506db
:400fc00002857a753c7500bff83a62d01753865f681151680461500002867a723c7200bfda8007126276118fe162d0065f109162d00055eb103eeb02865511003a62d00b7c
:401000005385511102613f778007126276118fed5564b351853f645567b03e6753c03e6753c13e6753c23e6753c37c06a4500057007c07175010579a7c0592500157007c39
:40104000071751c07c05b4500157027c0717501057967c0592500157037c071751c17c05b4500157057c0717501057967c0592500157067c071751c27c05b4500157087c79
:401080000717501057987c0592500157097c071751c37c05b47f3a002e0041564552414745008fff08105d082180a006550b00801b510b580b1101d0015b111ed008551480
:4010c000007615800755140155150020187e7eff00303030303030303030303030303030303030303030303030303030303030303030303030303030303030303030303007
:4011000030303030303030303030303030303030303030303030303030303030303030303030303030303030303030303030303030303030303030303030303030303030af
:40114000303030303030303030303030303030303030303030303030303030303030303030303030303030303030303030303030303030303030303030303030303030306f
:40118000303030303030303030303030303030303030303030303030303030303030303030303030303030303030303030303030303030303030303030303030303030302f
:4011c00030303030303030303030303030303030303030303030303030303030303030303030303030303030303030303030303030303030303030303030303030303030ef
:020000040010ea
:020000040020da
:02000000f8b551
:00000001ff
